:020000020000FC
:100000000FEF04B907B90AB9002705B908B90BB948
:100010000895F1E0E0E00027B5E0AFEF0193F1F7DC
:1000200008954F935F933F93503220F05052330F17
:10003000330F330FE0E0F1E000E3059FE00106E05D
:10004000049FD001BB0FBB0FBB0FBB0FBB0FA6950F
:10005000A695A695AB2BCA0FDB1F0D911C91437083
:10006000433029F14230A9F0413029F00370330FB9
:10007000330F032B21C00C7F1F70232F330F330F3F
:10008000330F330F2695269526952695132B022B95
:1000900013C0007F1F73232F36953695220F220F32
:1000A000220F220F220F220F032B022B05C0007CF0
:1000B00036953695032B00C01E930C933F915F91AC
:1000C0004F910895F1E0E0E0552744273191032F47
:1000D000369536950E949B003191132F000F000F2B
:1000E000000F000F3695369536953695302B0E94C9
:1000F0009B003191032F110F110F369536953695D0
:10010000369536953695312B0E949B00302F0E94F4
:100110009B0043954031D1F60E9491005395503297
:10012000A1F65F932D9A550F5E73516058B94098B0
:100130002D985F9108953F93330F330F32603BB991
:0601400059983F9108955B
:00000001FF
