:020000020000FC
:100000000C9455000FEF0AB907B904B959984098F4
:100010002D980895F1E0E0E00027B7E0AFEF0193FD
:100020001197E9F70895F1E0E0E020E030E4119164
:100030000E9422003A95D9F70E942A0023952F3179
:10004000A9F708951F93110F110F12601BB959984A
:100050001F9108952F932D9A220F2E73216028B996
:1000600040982D982F9108955F934F931F9350328E
:1000700020F05052110F110F110F00E4509FF001AA
:10008000E40F08F4F39500E061E0E00FF61F008153
:10009000012B00831F914F915F9108958827992725
:1000A0000196F1F70A95D1F7089508E00EBF0FEF1A
:1000B0000DBF0E9402000E940A0050E040E017E0DD
:1000C0000E94340043954034D1F70E9413000C94F1
:0200D0006500C9
:00000001FF
